:020000040800F2
:1000000080070020CD010008931700084316000860
:1000100091170008F10300081B19000800000000F8
:10002000000000000000000000000000971700081A
:10003000F303000800000000951700089917000856
:10004000E7010008E7010008E7010008E7010008F0
:10005000E7010008E7010008E7010008E7010008E0
:10006000E7010008E7010008E7010008E7010008D0
:10007000E7010008E7010008E7010008E7010008C0
:10008000E7010008E7010008F5020008E7010008A1
:10009000E7010008E7010008E7010008E7010008A0
:1000A000E7010008E7010008E7010008E701000890
:1000B00019180008E7010008E7010008E701000837
:1000C000E7010008E7010008E7010008E701000870
:1000D000E7010008E7010008E7010008E701000860
:1000E000E7010008E7010008E7010008E701000850
:1000F000E7010008E7010008E70100081103000814
:10010000E7010008E7010008E7010008E70100082F
:10011000E7010008E7010008E7010008E70100081F
:10012000E7010008E7010008E7010008E70100080F
:1001300000F002F800F03AF80AA090E8000C8244BF
:100140008344AAF10107DA4501D100F02FF8AFF29C
:10015000090EBAE80F0013F0010F18BFFB1A43F0A5
:100160000103184784350000A4350000103A24BF6D
:1001700078C878C1FAD8520724BF30C830C144BF0C
:1001800004680C607047000000230024002500264E
:10019000103A28BF78C1FBD8520728BF30C148BFEA
:1001A0000B6070471FB51FBD10B510BD00F06CF897
:1001B0001146FFF7F7FF01F04BFC00F08AF803B49B
:1001C000FFF7F2FF03BC00F08DF8000009488047FC
:1001D00009480047FEE7FEE7FEE7FEE7FEE7FEE729
:1001E000FEE7FEE7FEE7FEE704480549054A064B41
:1001F0007047000017180008310100088001002036
:100200008007002080030020800300204FF00002C0
:1002100000B5134694469646203922BFA0E80C50FC
:10022000A0E80C50B1F12001BFF4F7AF090728BFD7
:10023000A0E80C5048BF0CC05DF804EB890028BF53
:1002400040F8042B08BF704748BF20F8022B11F07C
:10025000804F18BF00F8012B7047704770477047F8
:1002600010B500F009F8006810BD10B5044600F0A4
:1002700003F8046010BD0000004870471C01002016
:10028000004870471C0100207546FFF7F9FFAE4695
:1002900005006946534620F00700854618B020B592
:1002A000FFF7A2FFBDE820404FF000064FF0000727
:1002B0004FF000084FF0000B21F00701AC46ACE80E
:1002C000C009ACE8C009ACE8C009ACE8C0098D467B
:1002D000704710B50446AFF300802046BDE81040DB
:1002E000FFF76DBF01491820ABBEFEE726000200F4
:1002F0007047000010B5044800F067F9BDE81040F1
:10030000024800F062B900004400002074000020A0
:10031000014800F05AB90000A400002070B504465E
:1003200000688168C943C90717D1816821F00101BC
:10033000816000F021FC05460AE000BF00F01CFCD3
:10034000401B022804D920688068C043C00706D03B
:1003500020688068C043C007F0D0002070BDA06A4C
:1003600040F01000A062E06A40F00100E06201206D
:1003700070BD0000F8B5002604460096006881684C
:10038000C943C9072DD0816841F001018160164839
:1003900016490068B0FBF1F000E0401E0090002814
:1003A000FBD100F0E9FB054616E000BF00F0E4FBDE
:1003B000401B022810D920688068C043C0070BD0BA
:1003C000A06A40F01000A062E06A40F00100E06224
:1003D00084F824600120F8BD20688068C043C0070D
:1003E000E4D10020F8BD00004000002040420F0092
:1003F000FEE7704770470000F8B50024009490F8BD
:1004000024202546012A12D0012280F824204A689F
:100410001F23072A0DD20668776B521E02EB820259
:1004200093409F430B6893401F43776319E002207A
:10043000F8BD06680D2A0AD2376BD21F02EB820282
:1004400093409F430B6893401F43376309E0F76A6B
:100450000D3A02EB820293409F430B6893401F4387
:10046000F7620A68072306680A2A0AD3F7680A3A75
:1004700002EB420293409F438B6893401F43F76017
:1004800008E0376902EB420293409F438B68934038
:100490001F4337610A68102A01D0112A20D1124B5C
:1004A00002689A4217D193681B0219D4936843F4E7
:1004B000000393600968102912D10C490C4A09689D
:1004C000B1FBF2F101EB8101490000E0491E00910E
:1004D0000029FBD104E0816A41F0200181620124FE
:1004E00080F824502046F8BD002401404000002040
:1004F00040420F002DE9F0412D4C0546E0780028E0
:1005000053D12C492868DFF8B080012688420ED1EB
:10051000207830B9404600F055F802F00FFFA06097
:100520002670D8F80000416821F020014160224F78
:1005300022492868303788420DD1607830B9384672
:1005400000F040F802F0FAFEE0606670386841683A
:1005500021F0200141601A492868884209D1A07819
:1005600038B91548603000F02DF802F0E7FE206140
:10057000A6702078012818D16078012815D1A078BC
:10058000012812D1E670D8F80000416821F020015E
:1005900041603868416821F02001416006486030C0
:1005A0000068416821F020014160BDE8F081000051
:1005B00000000020002401404400002000280140E9
:1005C000003C01400068C06C704770B5044600688C
:1005D00006684568A90625D5B10723D5A16AC906CD
:1005E00003D4A16A41F40071A1628168C1F3424160
:1005F000072910D1217B71B9416821F020014160A8
:10060000A06A20F48070A062A06AC00403D4A06A2B
:1006100040F00100A0622046FFF76CFF21686FF0F8
:100620001200086028062ED570072CD5A06AC006D7
:1006300003D4A06A40F40050A06220688168C1F32E
:100640000231072909D04168490515D48168C1F3F1
:100650004241072910D1217B71B9416821F0800105
:100660004160A06A20F48050A062A06AC00503D453
:10067000A06A40F00100A0622046FFF7BBFE21689F
:100680006FF00C00086068060CD5F0070AD0A06A6D
:1006900040F48030A062204600F096F821686FF0A8
:1006A0000100086070BD00002DE9F04104004FF02A
:1006B00000057FD0A06A002628B9E66284F824608D
:1006C000204600F083F82046FFF728FEA16AC906FD
:1006D00000D420B1A06A40F01000A0626AE0A16AD4
:1006E00021F4885141F00201A162334923688B4211
:1006F000E16904D1B1F5402F01D14FF40021277BEE
:100700004FF4807C41EA470261680A43A168614571
:1007100008D0012906D0002194F814E0BEF1010FA1
:1007200002D00AE06146F7E7C7B1A76A47F02007A1
:10073000A762E76A47F00107E7625F6827F4694745
:100740000F435F60236899681C4F394011439960DB
:10075000A16861450BD0012909D00CE0DFF860E009
:10076000A7690EEB47370F4347F40061E5E7218A9D
:100770000D05A5F580152168CB6A23F470032B4382
:10078000CB62216889680F4B1940914208D1E6621B
:10079000A16A21F0020141F00101A162BDE8F081EE
:1007A000A06A20F0020040F01000A062E06A40F071
:1007B0000100E0620120F1E7003C0140FDF7E1FFAC
:1007C00000E0FFFFFE0E1FFF7047000010B586B06F
:1007D000002100910191029103912E4C03682E4952
:1007E00003222E48A34211D18B6943F400738B611D
:1007F0008B6903F4007304938B6943F004038B61EA
:10080000896901F004010491012113E0244CA34201
:1008100020D18B6943F480638B618B6903F480631F
:1008200004938B6943F004038B61896901F004012F
:1008300004910221CDE90012694600F09BF80022E4
:100840000121122000F004FA5FF0120000F0F2F92A
:1008500006B010BD134CA342FAD18B6943F4004398
:100860008B618B6903F4004304938B6943F00403A9
:100870008B61896901F0040104910421CDE9001222
:10088000694600F077F8002201212F2000F0E0F9FE
:100890002F20DBE700240140001002400008014047
:1008A00000280140003C014070B5044690F8240047
:1008B00001280DD0012084F824002046FFF75AFDBE
:1008C00002004FF0000005D084F82400104670BDEF
:1008D000022070BDA16A40F60163994341F4807122
:1008E000A162224D23682249AB4218D10E6816F44A
:1008F000702F14D0A66A46F48016A6620E6876059C
:1009000005D5A66A26F4005646F48056A662A66A65
:10091000F6040AD5E66A26F00606E66206E0A66A4E
:1009200026F48016A6625E68E9E7E06284F8240097
:100930006FF0020018602068436843F020034360B2
:1009400020688368C3F34243072B05D1A84208D12E
:10095000096811F4702F04D0816841F4801181601E
:10096000B4E7816841F4A001F9E7000000280140E4
:10097000042401402DE9F84FDFF8C8910024A9F1C3
:10098000040B23460F2709F1040AABF1040ED1E052
:100990000125A54006EA0502AA4276D1DFF8A8C1E2
:1009A0004E68A6EB0C0866452BD00DDC032E34D028
:1009B00005DC36B3012E19D0022E2FD11BE0112EEB
:1009C00016D0122E2AD119E0B8F5881F19D006DCEE
:1009D000B8F5803F15D0B8F5801F1FD111E0B8F5EC
:1009E000001F0ED0B8F5041F18D10AE0CB6815E03F
:1009F000CB681B1D12E0CB6808330FE0CB680C33CB
:100A00000CE08B682BB1012B4FF0080303D045613C
:100A100004E0042302E0056100E00023FF2A01D87E
:100A2000064601E000F104064FEA840501D9A5F16C
:100A30002005D6F8008007FA05FC28EA0C0803FA1E
:100A400005F548EA0508C6F800804D68ED0070D548
:100A50003E4DAE6946F00106AE61AD6924F0030675
:100A600005F0010500953A4D06EB050CDCF8085041
:100A7000A607360F07FA06F825EA0805DFF8D4803E
:100A8000404503D14FF0000825E052E0DFF8C88070
:100A9000404502D14FF001081DE0DFF8C08040451D
:100AA00002D14FF0020816E0DFF8B480404502D1D1
:100AB0004FF003080FE0DFF8AC80404502D14FF063
:100AC000040808E0DFF8A080404502D14FF0050897
:100AD00001E04FF0060808FA06F848EA0508CCF8E5
:100AE00008804D68D9F80060ED024D4601D51643E7
:100AF00000E096432E604D68DAF80060AD0255467E
:100B000001D5164300E096432E604D68DBF8006087
:100B1000AD035D4601D5164300E096432E604D6857
:100B2000DEF80060ED03754601D5164300E09643FC
:100B30002E60641C0A681646E2407FF429AFBDE8C7
:100B4000F88F00000804014000001110001002405E
:100B50000000014000080140000C0140001001406D
:100B60000014014000180140001C01400AB101615D
:100B700070470904FBE700000148806870470000E7
:100B80003400002002488168027811448160704777
:100B900034000020074810B5016841F010010160E1
:100BA000032000F075F80F2000F006F800F024F89C
:100BB000002010BD0020024070B50D4D04464FF4DA
:100BC0007A712878B1FBF0F00A490968B1FBF0F0BE
:100BD00000F032FB48B9102C07D200222146501EEB
:100BE00000F036F800206C6070BD012070BD000080
:100BF00034000020400000200C4808B5816941F015
:100C000001018161816901F001010091C16941F037
:100C10008051C161C06900F0805000900448416873
:100C200021F0E06141F00071416008BD0010024018
:100C300000000140002809DB00F01F020121914063
:100C40004009800000F1E020C0F80011704700006A
:100C5000F0B40E4B1B680C46C3F30223C3F1070527
:100C6000042D00D90425191D072901D2002300E015
:100C7000DB1E012606FA05F1491E214099409E40DF
:100C8000761E16403143F0BC00F05CBE0CED00E077
:100C9000064900F0070208684FF6FF03184040EAD3
:100CA0000220034A10430860704700000CED00E08A
:100CB0000000FA052DE9F84305460078354CC007D9
:100CC00054D0E0690026C00008D4E06940F08050AC
:100CD000E061E069012600F0805000902E48016834
:100CE000C90512D40168804641F480710160FFF7A4
:100CF00043FF074605E000BFFFF73EFFC01B642827
:100D000023D8D8F80000C005F6D5206A10F440704A
:100D100021D0A98801F4407181421CD0206A1F496A
:100D2000012220F440700A6000220A602062C0079D
:100D300011D0FFF721FF074641F2883808E000BFD5
:100D4000FFF71AFFC11B414502D90320BDE8F88314
:100D5000206A8007F4D5206A696820F4407008434F
:100D600020621EB1E06920F08050E06128788007A1
:100D700005D56068A96820F4404008436060287881
:100D8000C00605D56068696920F48000084360608A
:100D90000020DBE7001002400070004040044242A7
:100DA0002DE9F0470F46050061D0434E306800F052
:100DB0000700B84209D2306820F00700384330609D
:100DC000306800F00700B84251D128683B4C8107D9
:100DD00012D5400703D5606840F4E0606060287871
:100DE000000703D5606840F4605060606068A968DF
:100DF00020F0F000084360602878C00728D06868B9
:100E0000012810D02168022810D0890700292EDA85
:100E1000616821F0030101436160FFF7ADFE804688
:100E200041F288390DE021688903EFE78901EDE798
:100E3000FFF7A2FEA0EB0801494502D90320BDE857
:100E4000F0876068696800F00C00B0EB810FEFD1AB
:100E5000306800F00700B8420BD9306820F0070076
:100E600038433060306800F00700B84201D00120FC
:100E7000E5E72878400705D56068E96820F4E06078
:100E8000084360602878000706D56068296920F467
:100E9000605040EAC100606000F018F86168084ADC
:100EA000C1F30311515CC840064908600648006858
:100EB000FFF782FE0020C2E700200240001002403F
:100EC0004436000840000020380000200E4A5168D7
:100ED0000E4801F00C03042B11D0082B0FD10C4845
:100EE000C1F38343C903C05C0AD55168084AC1F302
:100EF0004041921E515C054A5043B0FBF1F07047EF
:100F000004494843704700000010024000127A0074
:100F10003436000800093D002DE9F84F040070D078
:100F20002078C04DC00749D06868C0F3810001280F
:100F300007D06868C0F38100022809D16868C0033F
:100F400006D52868800339D560680028E7D035E0E9
:100F50006068B0F5803F0BD010B1B0F5A02F11D074
:100F6000286820F480302860286820F4802002E07F
:100F7000286840F480302860606890B1FFF7FCFD7D
:100F800006460AE0286840F480202860F0E700BFA9
:100F9000FFF7F2FD801B642873D828688003F7D51B
:100FA0000CE0FFF7E9FD064605E000BFFFF7E4FDB2
:100FB000801B6428F0D828688003F7D420789A4EE4
:100FC00080074FF001094FF0000839D5686810F02C
:100FD0000C0F07D06868C0F38100022809D1686847
:100FE000C00306D42868800714D52069012808D1D9
:100FF00010E02069B0B1C6F80090FFF7BDFD0746CC
:1010000005E00AE1FFF7B8FDC01B0228C4D8286834
:101010008007F7D52868616920F0F80040EAC10030
:1010200028600DE0C6F80080FFF7A6FD074604E043
:10103000FFF7A2FDC01B022823D828688007F7D439
:10104000207800072CD57948A169D9B1C0F8009063
:10105000FFF792FD074604E0FFF78EFDC01B022854
:101060000FD8686A8007F7D571484FF4FA510068C5
:10107000B0FBF1F0009000BF0098411E0091FAD241
:101080000EE080E0C0F80080FFF776FD074604E040
:10109000FFF772FDC01B022875D8686A8007F7D475
:1010A0002078400760D5E8690027C00008D4E869C7
:1010B00040F08050E861E869012700F0805000901E
:1010C0005C480168C90513D40168834641F4807106
:1010D0000160FFF751FD824606E000BFFFF74CFDBF
:1010E000A0EB0A0064284ED8DBF80000C005F5D557
:1010F000E06801280AD008B1052813D0286A20F03A
:1011000001002862286A20F0040002E0286A40F00A
:1011100001002862E06841F2883B98B1FFF72CFD9E
:1011200082460BE0286A40F004002862EEE700BF28
:10113000FFF722FDA0EB0A0159455AD8286A80071B
:10114000F6D50CE0FFF718FD824605E0FFF714FD29
:10115000A0EB0A0159454CD8286A8007F6D41FB184
:10116000E86920F08050E861E06988B36968C1F3FC
:101170008101022944D00228C6F8608004D0FFF71C
:10118000FBFC044638E034E0FFF7F6FC074604E0D9
:10119000FFF7F2FCC01B02282BD828688001F7D487
:1011A000206AB0F5803F05D16868A16820F400305E
:1011B00008436860D4E908010843696821F47411A0
:1011C00008436860C6F86090FFF7D6FC044606E066
:1011D00025E000BFFFF7D0FC001B022809D82868D3
:1011E0008001F7D51BE000BFFFF7C6FC001B0228FB
:1011F00002D90320BDE8F88F28688001F4D40EE0FE
:101200000128F7D06868226A00F48031914204D145
:10121000616A00F47010884201D00120EAE70020E2
:10122000E8E7000000100240000042428004424211
:10123000400000200070004010B5401EB0F1807FDB
:1012400001D3012010BD4FF0E02460610F21601731
:1012500000F078FB0020A06107202061002010BD75
:101260007047704770B590F83C20012A2CD00124BB
:1012700080F83C40022280F83D2003685A689D684F
:1012800022F070060A6832435A60104B02689A4294
:101290000ED00F4B9A420BD0B2F1804F08D00D4BBD
:1012A0009A4205D00C4B9A4202D00C4B9A4204D180
:1012B000496825F080031943916080F83D40002182
:1012C00080F83C10084670BD022070BD002C014023
:1012D000003401400004004000080040000C0040C1
:1012E00010B5040003D094F83D0010B107E00120D0
:1012F00010BD002084F83C00204600F01FF80220BA
:1013000084F83D00211D206800F08CFA012084F84B
:10131000460084F83E0084F83F0084F8400084F8DA
:10132000410084F8420084F8430084F8440084F8C3
:10133000450084F83D00002010BD000008B500689D
:10134000B0F1804F12D10A48C16941F00101C16179
:10135000C069002200F00100009011461C20FFF738
:1013600077FCBDE808401C20FFF764BC08BD000006
:101370000010024090F83D10012901D00120704773
:10138000022180F83D100168CA6842F00102CA607B
:1013900000680E4988420ED00D4988420BD0B0F14A
:1013A000804F08D00B49884205D00B49884202D0B3
:1013B0000A49884204D1816801F00701062903D057
:1013C000016841F00101016000207047002C0140DC
:1013D000003401400004004000080040000C0040C0
:1013E00070B5044690F83C000025012817D001266E
:1013F00084F83C60022084F83D002068826822F076
:10140000770222F47F4282600868502838D00DDCD1
:1014100020284FD005DC90B3102811D14AE00220DB
:1014200070BD302846D040280AD13BE060282FD03C
:1014300070280DD0B0F5805F03D0B0F5005F12D0FA
:10144000012584F83D60002084F83C00284670BDEA
:10145000CB68D1E90121206800F02AFA2068816870
:1014600041F0770109E0CB68D1E90121206800F063
:101470001FFA2068816841F480418160E1E719E04A
:10148000CA684968206800F025FA5021206806E003
:10149000CA684968206800F02EFA6021206800F0D0
:1014A00011FACEE7CA684968206800F013FA4021B3
:1014B0002068F4E7226801461046F0E7704770B5EF
:1014C0000446006801694FF00005C943890715D437
:1014D000C168C943890711D4E91E01610120207741
:1014E000206880698007204602D0FFF7E7FF04E00C
:1014F00000F098F8204600F096F8257720680169FA
:10150000C943490717D4C168C943490713D46FF0C9
:1015100004010161022020772068806910F4407F77
:10152000204602D0FFF7CAFF04E000F07BF8204617
:1015300000F079F8257720680169C943090716D4B6
:10154000C168C943090712D46FF008010161042082
:1015500020772068C0698007204602D0FFF7AEFFE1
:1015600004E000F05FF8204600F05DF82577206881
:101570000169C943C90617D4C168C943C90613D450
:101580006FF010010161082020772068C06910F415
:10159000407F204602D0FFF791FF04E000F042F8C0
:1015A000204600F040F8257720680169C943C90743
:1015B00008D1C168C943C90704D1891E0161204609
:1015C00000F032F820680169C943090609D4C168EE
:1015D000C943090605D46FF0800101612046FFF779
:1015E0003FFE20680169C943490609D4C168C9435F
:1015F000490605D46FF040010161204600F020F853
:1016000020680169C94389060BD4C168C9438906AA
:1016100007D46FF0200101612046BDE87040FFF75C
:1016200020BE70BD704770470068B0F1804F03D195
:1016300002498888401C8880704700000000002014
:101640007047FEE73EB500241048009401940294D0
:101650000D498460016001250573047505614FF42F
:1016600060214460C161FFF71FF808B172B6FEE760
:10167000CDE90045694605480294FEF7BDFE002805
:1016800001D072B6FEE73EBD0024014044000020B8
:101690003EB5002410480094019402940D498460E2
:1016A000016001250573047505614FF460214460F4
:1016B000C161FEF7F9FF08B172B6FEE70095CDE90A
:1016C000015469460448FEF797FE002801D072B61F
:1016D000FEE73EBD00280140740000203EB5002416
:1016E00011480094019402940E4984600160012520
:1016F0000573047505614FF460214460C161FEF714
:10170000D3FF08B172B6FEE70220CDE900056946B5
:1017100002940548FEF770FE002801D072B6FEE77D
:101720003EBD0000003C0140A400002010B586B082
:1017300000241648009401940294039404944FF0FA
:101740008041059401603721C0E901140921C0E9F5
:1017500003148461FFF7C4FD08B172B6FEE74FF4CD
:101760008050009069460948FFF73AFE08B172B60A
:10177000FEE7049404A905480594FFF773FD0028CB
:1017800001D072B6FEE706B010BD0000D400002004
:10179000FEE7FEE770477047FFF7F4B930B595B044
:1017A00028216846FEF732FD14210AA8FEF72EFD17
:1017B00018210FA8FEF72AFD01210804CDE9001029
:1017C0000025029502240491CDE907404FF4A010B2
:1017D00009906846FFF7A0FB08B172B6FEE70AA9B8
:1017E0000F2081E831004FF48060CDE90D05022122
:1017F0000AA8FFF7D5FA08B172B6FEE74FF48040A9
:1018000011900F940FA8FFF755FA002801D072B677
:10181000FEE715B030BD70470148FFF750BE00002D
:10182000D4000020F0B502681C4B1D4D1D4E1E4F0C
:101830001E4C4FF0804C984209D0A04207D0604522
:1018400005D0A84203D0B04201D0B84204D122F062
:10185000700E4A6842EA0E02984209D0A04207D0B0
:10186000604505D0A84203D0B04201D0B84203D1B0
:1018700022F44075CA682A434D6922F080022A4347
:1018800002608A68C2620A688262984201D0A042FD
:1018900001D10969016301214161F0BD002C0140C2
:1018A0000004004000080040000C004000340140EB
:1018B00010B5846842EA032224F47F440A43224399
:1018C000826010BD826822F070020A4342F0070174
:1018D0008160704710B5036A046A24F00104046251
:1018E000846924F0F00444EA021423F00A020A4353
:1018F0008461026210BD10B5036A046A24F010040A
:101900000462846923F0A00324F4704444EA0232A0
:1019100043EA01118261016210BDFEE7490050EA0D
:10192000C12018BF04204A0D18BF40F0010040F24A
:10193000FF72B2EB515F08BF40F00200012808BF00
:10194000052070470907090E002804DB00F1E0209C
:1019500080F80014704700F00F0000F1E02080F8DC
:10196000141D70472DE9F0414F1E00EBC7010446DE
:10197000D1E9000115461E4637F006020DD02A4671
:10198000334601F037F97F1E04EBC703D3E9002388
:1019900000F0C8FE37F00602F1D1022F25D0042F47
:1019A00013D0062F18BFBDE8F0812A46334601F058
:1019B00021F9D4E90A2300F0B5FE2A46334601F0A6
:1019C00019F9D4E9082300F0ADFE2A46334601F0A8
:1019D00011F9D4E9062300F0A5FE2A46334601F0AA
:1019E00009F9D4E9042300F09DFE2A46334601F0AC
:1019F00001F9D4E9022300F095FE2A46334601F0AE
:101A0000F9F8D4E90023BDE8F04100F08BBE0000F6
:101A1000002213461046014900F040BF0000F03F8D
:101A200000F080BE002213461046114600F036BF7B
:101A300040F2013200204FF0E04101F08EBD000085
:101A4000024A0020110701F088BD000001FDFFFFE0
:101A500086B0FFF79FF8FFF7A1FE4FF0000B884814
:101A6000CDF800B0CDF804B0CDF808B0CDF80CB08A
:101A700081695C4641F020018161816901F02001AA
:101A80000491816941F00401816180697D4D00F01C
:101A900004000490002210212846FFF767F8102068
:101AA00000900120CDE901040220039069462846F8
:101AB000FEF760FFFFF7C6FDFFF7EAFDFFF70EFE3A
:101AC000FFF734FE002210212846FFF74FF86E483A
:101AD000FFF750FCDFF8B0A1AAF1900ADAF8000095
:101AE000816841F0040181600AF13000006881687A
:101AF00041F0040181600AF160000068816841F0F2
:101B0000040181604FF0E0208069604C20F07F404C
:101B1000A0625046FEF7C8FE0AF13000FEF7C4FE90
:101B20000AF16000FEF7C0FEE0780128FCD16FF0FA
:101B30000B052946A06801F03EFD01F06BFBDFF8C4
:101B400050914FF0663842464B4601F053F800F092
:101B5000B7FD064660612946E06801F02CFD01F002
:101B600059FB42464B4601F045F800F0A9FD0746F7
:101B7000A0612946206901F01EFD01F04BFB4246A1
:101B80004B4601F037F800F09BFD4FF0FF3805465B
:101B90004146E06101F00FFD81464146384601F0C3
:101BA0000AFD314601F028FC494601F02FFC206275
:101BB0002946384601F02AFC01F02CFB05460E466A
:101BC0000020344900F056FD424601F0C6FC2A468A
:101BD000334601F00FF800F073FD6062206A01F0F7
:101BE00019FB4FF0804700223B4600F057F80546AE
:101BF0000E46606A01F00EFB00223B4600F04EF8F4
:101C00002A46334600F08EFD00F034FD05460E46B0
:101C1000606A01F0FFFA2A46334600F03FFE00F00A
:101C20004FFD2063216A11F1FF4F03D31A49884207
:101C3000BFF67AAF4FF0E0208069A16A20F07F40C4
:101C4000401AE06284F803B084F800B084F801B070
:101C500084F802B0DAF80000416841F020014160E8
:101C6000094860380068416841F020014160064839
:101C700030380068416841F02001416054E70000BD
:101C80000010024000080140D400002000000020A5
:101C900066660A400000084058A8953E2DE9F04DC0
:101CA0001D460C4698B0174621F0004123F0004332
:101CB000002814BF4FF0010C4FF0000C0CEB440C4B
:101CC000FE4A0CEB02064FEA620C66452BD33E003F
:101CD00018BF012606EB45061644F94A964222D360
:101CE000F84A53EA070C02D0944205D148B918B01B
:101CF00000201146BDE8F08D002808BF4FF0000C11
:101D000001D04FF0010C0CEB440212F5001F0AD871
:101D1000002F14BF4FF0010C4FF0000C0CEB4502EC
:101D200012F5001F07D918B03A462B462146BDE8E8
:101D3000F04DFFF775BE0022DFF88CA3002CB8BF72
:101D4000534526DADFF884C36345A8BF022220DAB0
:101D5000DFF870C39C451CDCDFF874C30CEB235C1C
:101D6000BCF1140F08DDCCF1340627FA06FC0CFA9E
:101D700006F6BE420DD108E05FB9CCF1140623FA95
:101D800006FC0CFA06F69E4203D10CF00102C2F1E9
:101D9000020251EA000C19D1002D17DA002C18BFED
:101DA000022A01D0012A07D00220FEF75EFA18B0FD
:101DB000BDE8F04DFFF72CBE0220FEF756FAFFF704
:101DC00027FE18B081F00041BDE8F08DB7F1000C9E
:101DD0006CD1534525D104F1804212F5801201BF28
:101DE00000280020B74918B008BFBDE8F08DB548FD
:101DF000884207DC002DA1BF6046294618B0BDE827
:101E0000F08D07E0281E05DA80F0004118B060462A
:101E1000BDE8F08DAF497944D1E9000118B0BDE8C3
:101E2000F08DDFF8A0C2634525D1002D1FDA19B16E
:101E3000514512D1D8B909E0002840F0EC82A24AFD
:101E4000214618B062F31E01BDE8F08D0020214646
:101E500018B060F31E01BDE8F08D08DA18B0234613
:101E6000BDE8F04D02460020614600F017BD18B0F5
:101E70002146BDE8F08D514518DAB5F1804F0DD0FF
:101E8000A5F1005CBCF1FF5C10D1B4F1000C0DDBDE
:101E900018B06146BDE8F04D00F0ECBB234618B029
:101EA0000246BDE8F04D194600F0A4BE060024F03D
:101EB000004C3BD1D9B1514533D1002C06DD002D6A
:101EC000A1BF0020514618B0BDE8F08D002C01DD07
:101ED000002D1BDB002C13DA002D11DB012A4FF043
:101EE000000014BF78497C4918B0BDE8F08D022A83
:101EF00018BF002C0AD0012A08D1002C06DA0AE00B
:101F0000002CB8BF002D11DA012A04D0002018B02F
:101F10000146BDE8F08D18B000204FF00041BDE84B
:101F2000F08DA1F14050B0F17F601AD0012000EB9C
:101F3000E47050EA020421D0624C521E4FF0000BB4
:101F4000104304BF4FF0000B644C654883427CDDB6
:101F5000644A654893421FDD884217DB002D25DB6C
:101F600037E0002C00DA4AB1022A0CBF01204FF002
:101F7000FF3018B0BDE8F04D00F0E8BD0120FEF7DD
:101F800074F918B0BDE8F04DFFF74CBD4D4A8A42D8
:101F900002DC002D0ADC1CE0814202DA002D18DA96
:101FA00004E0484B994220DD002D12DD0220FEF7AF
:101FB0005CF9FFF73DFD05460E46002253465846A4
:101FC000214600F017FE18B066F31E012846BDE852
:101FD000F08D0220FEF749F9FFF732FD0A4621464F
:101FE00018B062F31E01BDE8F08D00223046614654
:101FF00001F026F880460E466FF0010201F0ADFABE
:102000004FF05532394B00F029FF4246334600F07D
:10201000F1FD0022364B00F021FF82464246334656
:1020200004911046194600F0E5FD5246049B00F06D
:10203000E1FD8A4600904FF0C0422E4B40463146AB
:1020400000F0D8FD2C4A2B4B00E027E0CDE906013B
:102050005146009800F0CEFD82460191274A284B58
:102060004046314600F0C6FD5246019B00F0E8FFB5
:1020700082460B4602460591DDE9060100F052FB5F
:10208000DDE9062300268846304600F0D9FF524697
:10209000059B00F0E3FE024600F07EB90020B1F59A
:1020A000801F07DA35223046614601F056FA0646AF
:1020B0006FF0340000EB215024E00000FFFF1F0010
:1020C000FFFF0F000000F03F0000F07F00004043E2
:1020D00001FCFFFFC61800000000F0FF0000F0BF89
:1020E0000000E0410000F043FFFFEF3F5555D53FB2
:1020F0000000E03F4715F73FFE822B6544DF5DF8A7
:102100000BAE543EA0F2FF300190C1F3130040F03B
:102110007F6141F040510291FE498842D8BF0020C2
:1021200004DDFD498142C8BF012001DD0D9008E0BA
:1021300000200D900198401C01900298A0F580109D
:1021400002900299F54878440B910D9900EBC1007B
:10215000D0E900230F9330460A920B9900F070FFEC
:10216000CDE90601DDE90A2130460F9B00F0DAFADD
:1021700002460B460020EA4900F090FB059102461A
:102180000B460090DDE9060100F034FD1490E548AF
:102190008A464FF0000878440299006812904FF088
:1021A000005040EA61010D980F9B01EB804000F563
:1021B000002109910A9A129800F042FF32460B9BC7
:1021C00000F04CFE4246534600F014FD06460291D4
:1021D00040465146099B129A00F00CFDDDE90623AA
:1021E00000F03CFE3246029B00F02AFF059B009A5D
:1021F00000F000FD0091149A0490534610461946D1
:1022000000F0F8FC06460246C7480B46029106213C
:102210007844FFF7A7FBCDE90510029B3246104634
:10222000194600F0E7FCDDE9053200F0E3FC05911A
:102230000646534640461946149A00F073FA009B2E
:10224000049A00F0D7FC3246059B00F06BFACDE90A
:102250000510424653461046194600F0CBFC0022BA
:10226000B24B02910A9000F05DFADDE9053200F010
:1022700059FA0E464246AD4B404600F0E1FE029B45
:102280000A9A00F0DDFEDDE9053200F0E7FD424686
:1022900002910A9033461046514600F0ABFCCDE95E
:1022A00006015346149A02990A9800F0A3FC8A4644
:1022B0000290334642460099049800F09BFC534636
:1022C000029A00F02FFA82460B4602460591DDE99C
:1022D000060100F027FADDE90623002088460646BD
:1022E00000F0AEFE5246059B00F0B8FD8246099113
:1022F0004FF060428E4B3046414600F07BFC04902C
:1023000006918C4A8A4B5046099900F073FC82462C
:102310000291894A894B3046414600F06BFC524697
:10232000029B00F0FFF9864B7B440D9A03EBC2033E
:10233000D3E9002300F0F6F90E900791019800F020
:1023400005FC0591DDE9061382460E9A049800F01B
:10235000E9F97C4A7A440D9B02EBC303D3E90023DD
:102360000093029200F0DEF95246059B00F0DAF984
:102370000026884652463046059B00F061FE009BD1
:10238000029A00F05DFE069B049A00F059FE079B3E
:102390000E9A00F063FD024600200B46029038467C
:1023A000294600F027FC824601912B463846194603
:1023B000029A00F045FE3246434600F01BFC5246AE
:1023C000019B00F0AFF907468A463246434629464C
:1023D000029800F00FFC05460E463A46534600F0C0
:1023E000A1F9594A8846914221DBA8EB020353EA3E
:1023F000000210D12A46334600F022FECDE9040146
:10240000524A534B3846514600F08CF9DDE904231B
:1024100000F0EEFC21D20220FDF727FFFFF708FBBA
:102420000A46214618B062F31E01BDE8F08D494B03
:1024300028F000429A4210D3474A08EB020353EABD
:1024400000027FF4C6AD2A46334600F0F9FD3A4655
:10245000534600F0CDFC7FF6BCAD0022019228F07F
:1024600000403E493E4A01EB2051824223DA481C9B
:102470004FF4801121FA00F040443A4AC0F30A5167
:102480007A44394BA1F2FF31CB4020EA0303C0F379
:10249000130040F48010C1F11401C840126801908B
:1024A000B8F1000FBCBF404201902846314600F011
:1024B000C7FD05460E462A4633463846514600F0CB
:1024C00031F94FF000084246284B4046059100F094
:1024D00091FBCDE90601264A264B4046059900F0BE
:1024E00089FB009102902A4633464046059900F048
:1024F000A7FD3A46534600F0B1FC1F4A1F4B00F0BF
:1025000079FB009B029A00F00DF9074688460246C7
:102510000B4635E08E9803007AB60B000E150000CE
:102520000000F03F46150000741400000000084051
:1025300009C7EE3FFD033ADCF5015B14E02F3EBE18
:102540004C1300001013000000009040FE822B6529
:102550004715973C00CC904000346F3F01FCFFFFD3
:102560000000E03F5C120000FFFF0F00432EE63F3B
:10257000396CA80C615C20BEEF39FAFE422EE63FB2
:10258000DDE9060100F0CEF8DDE9062305460E463A
:1025900000F056FD3A46434600F060FC0F462A46DE
:1025A000334600901046194600F024FB824602464E
:1025B0002E4888460B4605217844FFF7D3F952464A
:1025C000434600F017FB2A46334600F047FC80469E
:1025D0008A463B4628463146009A00F00BFB3B46B4
:1025E000009A00F09FF80691009000224FF080437F
:1025F0004046514600F024FD0F460C90424653469B
:102600002846314600F0F6FA3B460C9A00F046F9AF
:10261000069B009A00F014FD2A46334600F010FD98
:102620000022134B00F01AFC054601980E4601EB00
:1026300000510815002810DC28463146019A00F0A8
:102640008CFFFFF76BF9042808BFFFF7F9F928465C
:102650003146019A00F081FF05460B4618B02A4624
:1026600058462146BDE8F04D00F0C4BAFC10000009
:102670000000F03F2DE9F04106460F4600F0FAFB5E
:10268000041E0D4618BF0120284320F00040C0F171
:102690007F6000F1E040C00F0ED0301C18BF012059
:1026A000384320F00040C0F17F6000F1E040C00FEF
:1026B00004BF0120FDF7D9FD20462946BDE8F08181
:1026C00021F00042A2F16052B2F5801F01F00043F8
:1026D00028BFD2F17F6C0BD95FEA001C43EAC2022B
:1026E00042EB507018BF704728BF20F001007047C0
:1026F000B2F5801FBCBF184670474FEA410C1CF56D
:10270000001F02D2084600F072BE70B500F01CFB3C
:1027100000000089FFF7F6BF4FF00040A0F58000F1
:102720007047000010B591EA030F48BF83F00043E3
:1027300000F18E84841A71EB030C05D2121943EB5D
:102740000C03001B61EB0C01DFF824E14FEA11548C
:10275000A4EB135C1EEA430F18BF9EEA445F73D0DC
:1027600023EA0E03DCF1200E21EA045143F4801326
:1027700032D322FA0CFE10EB0E0023FA0CFE41EBD2
:102780000E01CCF1200E03FA0EFE10EB0E0051F1FB
:102790000001B1F5801FCCF1200E32D201EB0451C3
:1027A00012FA0EF2BDE8104058BF7047401C38BF07
:1027B0005FEA420218BF7047002814BF20F00100F2
:1027C00041F100014FEA410313F5001F38BF704784
:1027D000A1F1C04100F006BB012A43EB0302ACF1BA
:1027E000200CDCF11F0E32BF4FF0000E23FA0CF369
:1027F00010EB030041EB0451B4EB115FD0D0A1EB1F
:10280000045101F5801149085FEA300001EB0451E1
:102810000ED350F1000038BF12FA0EFE08D1BDE809
:102820001040C9E7401C38BF5FEA4202CAD1C3E783
:10283000BDE810404FEA410313F5001F38BF704751
:10284000A1F1C04100F0CEBA9EEA445F08D011EA7F
:102850005E0FBDE8104004BF01F00041002070474A
:10286000BDE8104070B500F06FFA00BF64FBBE3EDB
:102870000000E0FF02494FF0000000F03CBE00BF46
:102880000000F87F491058BFC1F140415B1058BFAC
:10289000C3F140438B42EFF3008070472DE9C04104
:1028A00030B4DFF8A0C23CEA111418BF3CEA13149C
:1028B00000F0EC8081EA03051CEA111444EAD574A7
:1028C00018BF1CEA131500F0C780A4EB05044FF0F5
:1028D000004545EAC12145EAC32341EA505143EA94
:1028E000525304F17F74994204F500344FEAC0203A
:1028F0004FEAC22208BF904200F09C804FEA136565
:102900000FF24016765D4FEA134506FB05F7C7F157
:10291000807706FB07F74FEAD737A7FB03687642B5
:10292000C8F58038A7FB06CE38BFA8F1010807FB21
:1029300008E64FF0000EA6FB028CE6FB03CEDCF1AE
:10294000000CCEF1004E38BFAEF1010EA6FB0C58C4
:102950004FF000074FF00005E6FB0E87A1FB08C60D
:10296000A0FB07CE16EB0E0645F10005E1FB07655F
:1029700015F1E04E7EBFA4F580345FEA46066D4156
:1029800016F1800745F100054FEA17274FEA066662
:1029900047EA0567A6F1DE46B6F1805F4FEA1525E6
:1029A0001FD9384624F0010C05EBC471BCF1FE6F51
:1029B00001EB0C1102D8F0BCBDE8008124425CBFE1
:1029C00001F5801E9EEAC47F02D4F0BCBDE8008100
:1029D000244238D4F0BCA1F1C041BDE8004100F070
:1029E00001BA4FEAD22242EA43524FEAD323A7FB6D
:1029F00002864FEAD02040EA415007FB03661EEAF8
:102A00000E0F4FEAD12105FB026658BFA6EB005618
:102A1000B6EB00564FEA520E4EEAC37E18EB0E0E8E
:102A200056EB530EBDD518EB02085E417F1C55F1E5
:102A30000005B6E74FF480154FF000074FF0000691
:102A40004FF00008ADE7F0BC4FF0000001F1C041CD
:102A500001F00041BDE8008111EA0C1F0CEA1315DA
:102A600000D00CE013EA0C1F00F025804FF00000AE
:102A7000F0BC81EA030101F00041BDE80081F0BC37
:102A8000BDE8004181EA030100F0ACB9F0BCBDE84B
:102A9000004170B500F058F9097EFC3E00F007B81F
:102AA00081EA03014FF0000001F00041704781EA24
:102AB000030100F097B9F0BCBDE800414FF0000001
:102AC00021497047FFFDFBF9F7F5F4F2F0EEEDEB6D
:102AD000E9E8E6E4E3E1E0DEDDDBDAD8D7D5D4D31C
:102AE000D1D0CFCDCCCBCAC8C7C6C5C4C2C1C0BF68
:102AF000BEBDBCBBBAB9B8B7B6B5B4B3B2B1B0AF6E
:102B0000AEADACABAAA9A8A8A7A6A5A4A3A3A2A151
:102B1000A09F9F9E9D9C9C9B9A999998979796950C
:102B200095949393929191908F8F8E8E8D8C8C8BA8
:102B30008B8A898988888787868585848483838230
:102B4000828181800000FF070000F87F10F00042C2
:102B500048BF4042B0FA80F310FA03F10AD0C3F143
:102B60001D0303F580634FEA415002EB035202EB71
:102B7000D12170474FF000007047000051EA030C6C
:102B800017D41CF5801F58BFBCF5801F00F10680CC
:102B9000994218BF704708BF9042704707D711F598
:102BA000801F58BF13F5801F19D49942704789427E
:102BB00070471CF5801F08D5BCF5801FF7D58B42E8
:102BC00018BF704708BF824270474FF4001C1CEBCF
:102BD000410F38BF1CEB430F01D28B42704770B5D9
:102BE00000F0B2F8922449004FF000514FF08053AA
:102BF000FFF748BEDFF848C170B51CEA111E1EBFC2
:102C00001CEA13159EEA0C0F95EA0C0F00F06F807A
:102C100081EA030423EA4C134EEAD47E21EA4C11E4
:102C200041F4801143F48013AE44A1FB024CA0FB9D
:102C30000365AEF17F7E361955EB0C05A1FB034C05
:102C40004CF10003A0FB021C16EB0C06654153F18E
:102C50000003094218BF46F0010613F4007F0BD1B0
:102C60004FEA03314FEA0530340341EA155140EA97
:102C700016506FF003020AE04FEAC3214FEAC52065
:102C8000F40241EA555140EA56506FF0020202EB5D
:102C90002E4201EB025585EACE710AD05FEA440C60
:102CA00018BF24F0004450F1000041F1000120EA77
:102CB000D47040F2FE7C624500D270BDA84214BFC1
:102CC0004FF080444FF04044002E08BF0024BEF176
:102CD000806FA8BFA1F1C041BDE8704080F2828042
:102CE0004FF0000001F1C04101F0004170479EEA41
:102CF0000C0F0CEA131518BF95EA0C0F06D04FF015
:102D0000000081EA030E0EF0004170BD00F01CF8D7
:102D10008900013E00F007B800F009B84FEA430C03
:102D20005FEA5C5C08D081EA030100F05BB84FEA1F
:102D3000410C5FEA5C5CF6D14FF00000014970473E
:102D40000000FF070000F87F0EF1020E2EF0030EC8
:102D50005EF8046B364205D4012A43EB030515F5F2
:102D6000001F12D8012841EB010C1CF5001F0CD8E4
:102D70000ED14FEAD17C15F5001F0CEB4C0C0CF179
:102D8000020C08BF4CEBD37C04E04FF0080C01E0D0
:102D90004FEAD37C0CEB4C0526FA05F606F0070645
:102DA000B6F1040C06D20EEB860CBDE870404CF078
:102DB000010C6047DFE80CF0090B02024FF0004104
:102DC0004FF00000A1F5002170BD19461046012802
:102DD00051EB010418BFD4F5001484BF002001F0AA
:102DE000004170BD0808A0F500114FEA310170479D
:102DF00053EA010C17D41CF5801F58BFBCF5801F87
:102E000000F106808B4218BF704708BF82427047AE
:102E100007D713F5801F58BF11F5801F19D48B42B7
:102E200070479B4270471CF5801F08D5BCF5801F7A
:102E3000F7D5994218BF704708BF904270474FF4CA
:102E4000001C1CEB430F38BF1CEB410F01D2994211
:102E500070470FB40CBC03BCFFF7C1BE91EA030F6F
:102E600010B581F000413FF565AC83F0004300F000
:102E7000EFB800002DE9F04101F5801CBCF5001F02
:102E8000C0F2C3804FEA115C21EA0C510CF1FD0C39
:102E900041F480115FEA5C0C0CF5C07C01D340006A
:102EA00049413DA4890241EA905187028E0E0A0CE5
:102EB000A45D04FB04F602FB06F6C6F14046A4FB43
:102EC0000662F60D46EA422606FB06F4A4FB012341
:102ED0005242C3F1404338BF5B1EA6FB02420024AE
:102EE000E6FB0324D20B42EA4446A6FB0623A1FBE1
:102EF00002E2A3FB07E4A4184FF0000252F1000223
:102F0000E3FB01426442C2F1404E38BFAEF1010E14
:102F1000A6FB04234FF00002E6FB0E32A2FB0346A1
:102F20004FF00004B61954F10004E2FB0264A1FB67
:102F300006E6A4FB07E816EB08064FF0000858F178
:102F40000008E4FB01687642C8F1405838BFA8F198
:102F50000108A2FB06E4A3FB08E52D194FF00004CD
:102F600054F10004E2FB0854A1FB05E6A7FB04E8CA
:102F700018EB06084FF0000656F10006E1FB048648
:102F800018F1200556F10006A809A8F11B08B1099F
:102F900008F03F08B8F10A0F40EA86601CD901EB3F
:102FA0000C51BDE8F08100BFFCF5EEE8E2DDD8D3BE
:102FB000CFCBC7C3C0BDB9B6B4B1AEACA9A7A5A3AA
:102FC000A19F9D9B9A9896959392908F8D8C8B89BB
:102FD0008887868584838281A0FB006800FB01F2DC
:102FE00008EB4208B8EB872807D5341858EB0104E2
:102FF000D5D5401C51F10001D1E7341A78EB01041A
:10300000CDD4401E71F10001C9E75FEA4C0C5FEAC4
:103010009C5C0DD105D34FF0000001F00041BDE8EC
:10302000F081BDE8F04170B5FFF78EFE6DDBFFBEAD
:10303000BDE8F0414FF00000004970470000F87F04
:1030400010B591EA030F48BF83F000433FF572AB20
:10305000841A71EB030C07D212198CF0004C43EB6D
:103060000C03001B61EB0C01DFF8A4E14FEA1154E3
:10307000A4EB135C1EEA430F18BF9EEA445F00F006
:10308000B08023EA6E03524221EA0451C3EB6E037F
:1030900038BF5B1EDCF1200E25D322FA0CFE10EBAC
:1030A0000E0043FA0CFE41EB0E01CCF1200E03FAA8
:1030B0000EFE10EB0E0051F10001CCF1200E29D4D0
:1030C00012FA0EF201EB0451BDE8104058BF7047F0
:1030D000401C1CBFB2F1004F704700280CBF491CB8
:1030E00020F00100704712EB020E43EB030218BF01
:1030F0004FF0010E4EEA4202ACF1200CDCF11E0E44
:1031000054D943FA0CFE10EB0E0051F1FF31CCF113
:103110001E0ED5D50EF1010E12FA0EFE404141EB06
:10312000010101EB445C5FEA5C5C10D910EBDE70DE
:1031300001EB045138BFBEF1004FBDE8104018BF8D
:10314000704700280CBF491C20F00100704730D2A6
:103150004FEAD42C11F5001124F400641BD0B1FA0D
:1031600081F20B3AA41AA41ED2F12003914030FA46
:1031700003F31943904001EBCC71002C01EB045197
:10318000BDE81040A8BF704701F1C0414FF00000FA
:1031900001F000417047B0FA80F310FA03F100D15A
:1031A00010BDE41A173C4805C90AE4E701EB0451D5
:1031B00010BD491001EB0451BDE810404FEA30004A
:1031C00002E04FF0000170474A0008BF0042F8D00B
:1031D000B2F5001F28BF704701F000414FF000001A
:1031E00070479EEA445F07D011EA5E0FBDE81040C9
:1031F00004BF002100207047BDE8104070B5FFF704
:10320000A3FD00BF40DFF63E83F00041104670474B
:103210000000E0FF43004FEAD30C4FEA3C0C434070
:103220001FBF40070CF1605113F0FE4F70471CF0B8
:10323000006F03D100200CF0004170470CF00043F8
:1032400043EA507010B540EACC0000F08AF800BFA5
:10325000000000924FEA0001FFF7C4BD4FF00041AB
:103260004FF00000A1F500217047000090EA010F27
:1032700048BF81F0004100F1D080421A3CBF801A63
:1032800089184FEAD0524FF07F4C1CEA410FA2EB55
:10329000D15318BF9CEA026F00F03B804FF0004C06
:1032A0004CEA00204CEA012121FA03FC10EB0C0C43
:1032B0001ED202F1FF325FEA1C2040EBC25038BF41
:1032C00070471CF07F0F4FEA400C18BFBCF17F4FD6
:1032D00038BF7047C3F12003994008BF20F00100B8
:1032E000BCF17F4F38BF7047A0F1C04000F07FB8FD
:1032F0004FEA3C00000A40EBC25028BF1CF0FF0F11
:103300004FEA400CE6D018BFBCF17F4F38BF704782
:10331000EAE79CEA026F05D010EA5C0F08BF00F0F4
:103320000040704710B500F01CF800BF64FBBE3EC3
:10333000014800F0E0B800BF0000C07FB0FA80F3A1
:1033400010FA03F2C3F19D030AD0D90501EB122054
:10335000530638BF704700F1010008BF20F001009C
:1033600070470EF1020E2EF0030E5EF8044B24425D
:1033700004D44FEA4102B2F17F4F11D84FEA400323
:10338000B3F17F4F0CD80ED14FEAD07CB2F17F4F12
:103390000CEB4C0C0CF1020C08BF4CEBD17C04E0A4
:1033A0004FF0080C01E04FEAD17C0CEB4C0324FAFF
:1033B00003F404F00704B4F1040C06D20EEB840C01
:1033C000BDE810404CF0010C6047DFE80CF0070846
:1033D00002024FF00040A0F5800010BD08464200F8
:1033E00018BFD2F1807288BF00F0004010BDFF21ED
:1033F00041EAD050C005704780F0004090EA010FCC
:103400007FF53BAF81F0004100F007B890EA010F73
:1034100048BF81F000413FF530AF421A04D882F036
:103420000042A0EB020011444FEAD0524FF07F4C13
:103430001CEA410FA2EBD15318BF9CEA026F4AD09D
:103440004FF0004C4CEA00204CEA012121FA03FC29
:10345000B0EB0C0C0FD412F0FE0F36D05FEA4C002C
:103460001DD5001240EBC25038BF70471CF03F0F13
:1034700018BF70470BE0A2F101025FEA1C2040EB8D
:10348000C25038BF70471CF07F0F18BF7047C3F1A0
:103490002003994014BF401E20F0010070478008AF
:1034A0004FEA122308BF7047B0FA80FCA2EB0C026F
:1034B000CCF1280C60FA0CF093EA122F04BF00EB59
:1034C000C25070474FEAC3707047130A5FEADC10BE
:1034D00008BF7047F6E79CEA026F04D010EA5C0F61
:1034E00008BF0020704710B5FFF73BFF40DFF63EF6
:1034F00081F0004070470CF00F03092B08BF082033
:1035000000F07F800A2B0BD0082B18BF704708BF34
:103510001CF0400F0AD04FF000004FF00001704740
:103520001CF0400F18BF4FF0004070471CF0100F08
:1035300008D020F0704300F07F4242EAD3014FEA06
:103540004370704700F0604021F07F4242EA000281
:1035500001F07F4040EA727070474FF0FF0C4CF46E
:10356000E06C1CEA11531CBF9CEA030C9445C2BFDB
:10357000DA4201EB02517047002B0DD0BCF1000F75
:103580000FD0002A01F00041A4BF41F0E04141F01A
:103590007F614FF00000704701F000414FF00000E4
:1035A000704750EA01334FF09B0C18BF4CF0806C11
:1035B0007FF460A970474FF0FF0212EAD0521CBF9F
:1035C00092F0FF038B42C2BFD14200EBC150704763
:1035D000002A0AD0002B0BD0002900F00040A4BF25
:1035E00040F0FE4040F40000704700F0004070479B
:1035F00043024FF00B0C18BF4CF0806C7FF498AE78
:1036000070471CF4801F11D01CF4E02F03D06FEA28
:10361000CC31490070474FF04050EFF3008222F068
:10362000704242EA000282F3008870474FF00000C7
:103630007047010202030405060708090A0B0C0D76
:103640000E0F101000000000000000000102030433
:103650000607080900000000000000000000F03F1D
:10366000000000000000F83F000000000000000023
:103670000000004003B8E23F00000000000000002E
:1036800006D0CF43EBFD4C3E033333333333E33FBC
:10369000FFAB6FDBB66DDB3F4D268F515555D53FE8
:1036A00001411DA96074D13F65DBC9934A86CD3FB6
:1036B000EF4E454A287ECA3F3E5555555555C53FA4
:1036C00093BDBE166CC166BF2CDE25AF6A56113F96
:1036D000F16BD2C541BDBBBED0A4BE726937663E98
:1036E0000000000000000000083700080000002073
:1036F000440000006C0100084C3700084400002022
:103700003C070000880100080000000000000000E5
:1037100000000000000000000000000000000000A9
:103720000000000000000000000000000000000099
:103730000000000000000000000000000100000088
:0C37400010000000000000000024F40055
:0400000508000131BD
:00000001FF
